{
  "_format": "hh3-artifact-1",
  "contractName": "AdminV1",
  "sourceName": "contracts/AdminV1.sol",
  "abi": [
    {
      "inputs": [
        {
          "internalType": "address",
          "name": "target",
          "type": "address"
        }
      ],
      "name": "AddressEmptyCode",
      "type": "error"
    },
    {
      "inputs": [
        {
          "internalType": "address",
          "name": "implementation",
          "type": "address"
        }
      ],
      "name": "ERC1967InvalidImplementation",
      "type": "error"
    },
    {
      "inputs": [],
      "name": "ERC1967NonPayable",
      "type": "error"
    },
    {
      "inputs": [],
      "name": "EnforcedPause",
      "type": "error"
    },
    {
      "inputs": [],
      "name": "ExpectedPause",
      "type": "error"
    },
    {
      "inputs": [],
      "name": "FailedCall",
      "type": "error"
    },
    {
      "inputs": [],
      "name": "InvalidInitialization",
      "type": "error"
    },
    {
      "inputs": [],
      "name": "NotInitializing",
      "type": "error"
    },
    {
      "inputs": [
        {
          "internalType": "address",
          "name": "owner",
          "type": "address"
        }
      ],
      "name": "OwnableInvalidOwner",
      "type": "error"
    },
    {
      "inputs": [
        {
          "internalType": "address",
          "name": "account",
          "type": "address"
        }
      ],
      "name": "OwnableUnauthorizedAccount",
      "type": "error"
    },
    {
      "inputs": [],
      "name": "ReentrancyGuardReentrantCall",
      "type": "error"
    },
    {
      "inputs": [],
      "name": "UUPSUnauthorizedCallContext",
      "type": "error"
    },
    {
      "inputs": [
        {
          "internalType": "bytes32",
          "name": "slot",
          "type": "bytes32"
        }
      ],
      "name": "UUPSUnsupportedProxiableUUID",
      "type": "error"
    },
    {
      "anonymous": false,
      "inputs": [
        {
          "indexed": true,
          "internalType": "uint256",
          "name": "bondId",
          "type": "uint256"
        }
      ],
      "name": "BondApproved",
      "type": "event"
    },
    {
      "anonymous": false,
      "inputs": [
        {
          "indexed": true,
          "internalType": "uint256",
          "name": "bondId",
          "type": "uint256"
        },
        {
          "indexed": true,
          "internalType": "address",
          "name": "issuer",
          "type": "address"
        }
      ],
      "name": "BondCreated",
      "type": "event"
    },
    {
      "anonymous": false,
      "inputs": [
        {
          "indexed": true,
          "internalType": "uint256",
          "name": "bondId",
          "type": "uint256"
        }
      ],
      "name": "BondMatured",
      "type": "event"
    },
    {
      "anonymous": false,
      "inputs": [
        {
          "indexed": true,
          "internalType": "uint256",
          "name": "bondId",
          "type": "uint256"
        },
        {
          "indexed": true,
          "internalType": "address",
          "name": "buyer",
          "type": "address"
        },
        {
          "indexed": false,
          "internalType": "uint256",
          "name": "amount",
          "type": "uint256"
        },
        {
          "indexed": false,
          "internalType": "uint256",
          "name": "hbarPaid",
          "type": "uint256"
        }
      ],
      "name": "BondPurchased",
      "type": "event"
    },
    {
      "anonymous": false,
      "inputs": [
        {
          "indexed": true,
          "internalType": "uint256",
          "name": "bondId",
          "type": "uint256"
        },
        {
          "indexed": true,
          "internalType": "address",
          "name": "investor",
          "type": "address"
        },
        {
          "indexed": false,
          "internalType": "uint256",
          "name": "hbarPaid",
          "type": "uint256"
        }
      ],
      "name": "BondRedeemed",
      "type": "event"
    },
    {
      "anonymous": false,
      "inputs": [
        {
          "indexed": false,
          "internalType": "bool",
          "name": "",
          "type": "bool"
        },
        {
          "indexed": false,
          "internalType": "bytes",
          "name": "",
          "type": "bytes"
        }
      ],
      "name": "CallResponseEvent",
      "type": "event"
    },
    {
      "anonymous": false,
      "inputs": [
        {
          "indexed": false,
          "internalType": "address",
          "name": "newImpl",
          "type": "address"
        }
      ],
      "name": "ContractUpgraded",
      "type": "event"
    },
    {
      "anonymous": false,
      "inputs": [
        {
          "indexed": true,
          "internalType": "uint256",
          "name": "bondId",
          "type": "uint256"
        },
        {
          "indexed": true,
          "internalType": "address",
          "name": "to",
          "type": "address"
        },
        {
          "indexed": false,
          "internalType": "uint256",
          "name": "amount",
          "type": "uint256"
        }
      ],
      "name": "HBARForwarded",
      "type": "event"
    },
    {
      "anonymous": false,
      "inputs": [
        {
          "indexed": true,
          "internalType": "uint256",
          "name": "bondId",
          "type": "uint256"
        },
        {
          "indexed": false,
          "internalType": "uint256",
          "name": "amount",
          "type": "uint256"
        }
      ],
      "name": "HTSBurned",
      "type": "event"
    },
    {
      "anonymous": false,
      "inputs": [
        {
          "indexed": true,
          "internalType": "uint256",
          "name": "bondId",
          "type": "uint256"
        },
        {
          "indexed": false,
          "internalType": "bytes",
          "name": "tokenId",
          "type": "bytes"
        }
      ],
      "name": "HTSIssued",
      "type": "event"
    },
    {
      "anonymous": false,
      "inputs": [
        {
          "indexed": false,
          "internalType": "uint64",
          "name": "version",
          "type": "uint64"
        }
      ],
      "name": "Initialized",
      "type": "event"
    },
    {
      "anonymous": false,
      "inputs": [
        {
          "indexed": true,
          "internalType": "address",
          "name": "issuer",
          "type": "address"
        },
        {
          "indexed": false,
          "internalType": "address",
          "name": "wallet",
          "type": "address"
        }
      ],
      "name": "IssuerRegistered",
      "type": "event"
    },
    {
      "anonymous": false,
      "inputs": [
        {
          "indexed": true,
          "internalType": "address",
          "name": "issuer",
          "type": "address"
        }
      ],
      "name": "KYCApproved",
      "type": "event"
    },
    {
      "anonymous": false,
      "inputs": [
        {
          "indexed": true,
          "internalType": "address",
          "name": "legacy",
          "type": "address"
        }
      ],
      "name": "LegacyHTSManagerUpdated",
      "type": "event"
    },
    {
      "anonymous": false,
      "inputs": [
        {
          "indexed": true,
          "internalType": "address",
          "name": "previousOwner",
          "type": "address"
        },
        {
          "indexed": true,
          "internalType": "address",
          "name": "newOwner",
          "type": "address"
        }
      ],
      "name": "OwnershipTransferred",
      "type": "event"
    },
    {
      "anonymous": false,
      "inputs": [
        {
          "indexed": false,
          "internalType": "address",
          "name": "account",
          "type": "address"
        }
      ],
      "name": "Paused",
      "type": "event"
    },
    {
      "anonymous": false,
      "inputs": [
        {
          "indexed": false,
          "internalType": "address",
          "name": "account",
          "type": "address"
        }
      ],
      "name": "Unpaused",
      "type": "event"
    },
    {
      "anonymous": false,
      "inputs": [
        {
          "indexed": true,
          "internalType": "address",
          "name": "implementation",
          "type": "address"
        }
      ],
      "name": "Upgraded",
      "type": "event"
    },
    {
      "stateMutability": "payable",
      "type": "fallback"
    },
    {
      "inputs": [],
      "name": "MIN_ISSUE_FEE",
      "outputs": [
        {
          "internalType": "uint256",
          "name": "",
          "type": "uint256"
        }
      ],
      "stateMutability": "view",
      "type": "function"
    },
    {
      "inputs": [],
      "name": "UPGRADE_INTERFACE_VERSION",
      "outputs": [
        {
          "internalType": "string",
          "name": "",
          "type": "string"
        }
      ],
      "stateMutability": "view",
      "type": "function"
    },
    {
      "inputs": [
        {
          "internalType": "uint256",
          "name": "bondId",
          "type": "uint256"
        }
      ],
      "name": "approveBond",
      "outputs": [],
      "stateMutability": "nonpayable",
      "type": "function"
    },
    {
      "inputs": [
        {
          "internalType": "address",
          "name": "issuer",
          "type": "address"
        }
      ],
      "name": "approveKYC",
      "outputs": [],
      "stateMutability": "nonpayable",
      "type": "function"
    },
    {
      "inputs": [
        {
          "internalType": "uint256",
          "name": "",
          "type": "uint256"
        }
      ],
      "name": "bonds",
      "outputs": [
        {
          "internalType": "uint256",
          "name": "id",
          "type": "uint256"
        },
        {
          "internalType": "address",
          "name": "issuer",
          "type": "address"
        },
        {
          "internalType": "uint256",
          "name": "interestRateBP",
          "type": "uint256"
        },
        {
          "internalType": "uint256",
          "name": "couponRateBP",
          "type": "uint256"
        },
        {
          "internalType": "uint256",
          "name": "faceValue",
          "type": "uint256"
        },
        {
          "internalType": "uint256",
          "name": "availableUnits",
          "type": "uint256"
        },
        {
          "internalType": "uint256",
          "name": "targetUSD",
          "type": "uint256"
        },
        {
          "internalType": "uint256",
          "name": "durationSec",
          "type": "uint256"
        },
        {
          "internalType": "uint256",
          "name": "maturityTimestamp",
          "type": "uint256"
        },
        {
          "internalType": "enum AdminV1.BondStatus",
          "name": "status",
          "type": "uint8"
        },
        {
          "internalType": "bytes",
          "name": "htsTokenId",
          "type": "bytes"
        },
        {
          "internalType": "uint256",
          "name": "issuedUnits",
          "type": "uint256"
        }
      ],
      "stateMutability": "view",
      "type": "function"
    },
    {
      "inputs": [
        {
          "internalType": "uint256",
          "name": "bondId",
          "type": "uint256"
        },
        {
          "internalType": "uint256",
          "name": "units",
          "type": "uint256"
        }
      ],
      "name": "buyBond",
      "outputs": [],
      "stateMutability": "payable",
      "type": "function"
    },
    {
      "inputs": [
        {
          "internalType": "address",
          "name": "issuer",
          "type": "address"
        },
        {
          "internalType": "uint256",
          "name": "interestRateBP",
          "type": "uint256"
        },
        {
          "internalType": "uint256",
          "name": "couponRateBP",
          "type": "uint256"
        },
        {
          "internalType": "uint256",
          "name": "faceValue",
          "type": "uint256"
        },
        {
          "internalType": "uint256",
          "name": "availableUnits",
          "type": "uint256"
        },
        {
          "internalType": "uint256",
          "name": "targetUSD",
          "type": "uint256"
        },
        {
          "internalType": "uint256",
          "name": "durationSec",
          "type": "uint256"
        },
        {
          "internalType": "uint256",
          "name": "maturityTimestamp",
          "type": "uint256"
        }
      ],
      "name": "createBond",
      "outputs": [
        {
          "internalType": "uint256",
          "name": "",
          "type": "uint256"
        }
      ],
      "stateMutability": "nonpayable",
      "type": "function"
    },
    {
      "inputs": [
        {
          "internalType": "address",
          "name": "to",
          "type": "address"
        }
      ],
      "name": "emergencyWithdrawHBAR",
      "outputs": [],
      "stateMutability": "nonpayable",
      "type": "function"
    },
    {
      "inputs": [
        {
          "internalType": "address",
          "name": "_legacyHTSManager",
          "type": "address"
        },
        {
          "internalType": "address",
          "name": "_treasury",
          "type": "address"
        },
        {
          "internalType": "address",
          "name": "_owner",
          "type": "address"
        }
      ],
      "name": "initialize",
      "outputs": [],
      "stateMutability": "nonpayable",
      "type": "function"
    },
    {
      "inputs": [
        {
          "internalType": "uint256",
          "name": "bondId",
          "type": "uint256"
        },
        {
          "internalType": "string",
          "name": "name",
          "type": "string"
        },
        {
          "internalType": "string",
          "name": "symbol",
          "type": "string"
        },
        {
          "internalType": "bytes",
          "name": "metadata",
          "type": "bytes"
        },
        {
          "internalType": "uint256",
          "name": "amount",
          "type": "uint256"
        }
      ],
      "name": "issueBond",
      "outputs": [
        {
          "internalType": "bytes",
          "name": "",
          "type": "bytes"
        }
      ],
      "stateMutability": "payable",
      "type": "function"
    },
    {
      "inputs": [
        {
          "internalType": "address",
          "name": "",
          "type": "address"
        }
      ],
      "name": "issuers",
      "outputs": [
        {
          "internalType": "address",
          "name": "wallet",
          "type": "address"
        },
        {
          "internalType": "bool",
          "name": "kycApproved",
          "type": "bool"
        },
        {
          "internalType": "bool",
          "name": "connected",
          "type": "bool"
        }
      ],
      "stateMutability": "view",
      "type": "function"
    },
    {
      "inputs": [],
      "name": "legacyHTSManager",
      "outputs": [
        {
          "internalType": "address",
          "name": "",
          "type": "address"
        }
      ],
      "stateMutability": "view",
      "type": "function"
    },
    {
      "inputs": [
        {
          "internalType": "uint256",
          "name": "bondId",
          "type": "uint256"
        }
      ],
      "name": "markMature",
      "outputs": [],
      "stateMutability": "nonpayable",
      "type": "function"
    },
    {
      "inputs": [],
      "name": "owner",
      "outputs": [
        {
          "internalType": "address",
          "name": "",
          "type": "address"
        }
      ],
      "stateMutability": "view",
      "type": "function"
    },
    {
      "inputs": [],
      "name": "pause",
      "outputs": [],
      "stateMutability": "nonpayable",
      "type": "function"
    },
    {
      "inputs": [],
      "name": "paused",
      "outputs": [
        {
          "internalType": "bool",
          "name": "",
          "type": "bool"
        }
      ],
      "stateMutability": "view",
      "type": "function"
    },
    {
      "inputs": [],
      "name": "proxiableUUID",
      "outputs": [
        {
          "internalType": "bytes32",
          "name": "",
          "type": "bytes32"
        }
      ],
      "stateMutability": "view",
      "type": "function"
    },
    {
      "inputs": [
        {
          "internalType": "uint256",
          "name": "bondId",
          "type": "uint256"
        },
        {
          "internalType": "uint256",
          "name": "units",
          "type": "uint256"
        }
      ],
      "name": "redeemBond",
      "outputs": [],
      "stateMutability": "nonpayable",
      "type": "function"
    },
    {
      "inputs": [
        {
          "internalType": "address",
          "name": "token",
          "type": "address"
        },
        {
          "internalType": "bytes",
          "name": "encodedFunctionSelector",
          "type": "bytes"
        }
      ],
      "name": "redirectForToken",
      "outputs": [
        {
          "internalType": "int256",
          "name": "responseCode",
          "type": "int256"
        },
        {
          "internalType": "bytes",
          "name": "response",
          "type": "bytes"
        }
      ],
      "stateMutability": "nonpayable",
      "type": "function"
    },
    {
      "inputs": [
        {
          "internalType": "address",
          "name": "wallet",
          "type": "address"
        }
      ],
      "name": "registerIssuer",
      "outputs": [],
      "stateMutability": "nonpayable",
      "type": "function"
    },
    {
      "inputs": [],
      "name": "renounceOwnership",
      "outputs": [],
      "stateMutability": "nonpayable",
      "type": "function"
    },
    {
      "inputs": [
        {
          "internalType": "address",
          "name": "issuer",
          "type": "address"
        }
      ],
      "name": "revokeKYC",
      "outputs": [],
      "stateMutability": "nonpayable",
      "type": "function"
    },
    {
      "inputs": [
        {
          "internalType": "address",
          "name": "_m",
          "type": "address"
        }
      ],
      "name": "setHTSManager",
      "outputs": [],
      "stateMutability": "nonpayable",
      "type": "function"
    },
    {
      "inputs": [
        {
          "internalType": "address",
          "name": "_t",
          "type": "address"
        }
      ],
      "name": "setTreasury",
      "outputs": [],
      "stateMutability": "nonpayable",
      "type": "function"
    },
    {
      "inputs": [
        {
          "internalType": "address",
          "name": "token",
          "type": "address"
        },
        {
          "internalType": "address",
          "name": "from",
          "type": "address"
        },
        {
          "internalType": "address",
          "name": "to",
          "type": "address"
        },
        {
          "internalType": "uint256",
          "name": "amount",
          "type": "uint256"
        }
      ],
      "name": "transferFrom",
      "outputs": [
        {
          "internalType": "int64",
          "name": "responseCode",
          "type": "int64"
        }
      ],
      "stateMutability": "nonpayable",
      "type": "function"
    },
    {
      "inputs": [
        {
          "internalType": "address",
          "name": "token",
          "type": "address"
        },
        {
          "internalType": "address",
          "name": "from",
          "type": "address"
        },
        {
          "internalType": "address",
          "name": "to",
          "type": "address"
        },
        {
          "internalType": "uint256",
          "name": "serialNumber",
          "type": "uint256"
        }
      ],
      "name": "transferFromNFT",
      "outputs": [
        {
          "internalType": "int64",
          "name": "responseCode",
          "type": "int64"
        }
      ],
      "stateMutability": "nonpayable",
      "type": "function"
    },
    {
      "inputs": [
        {
          "internalType": "address",
          "name": "newOwner",
          "type": "address"
        }
      ],
      "name": "transferOwnership",
      "outputs": [],
      "stateMutability": "nonpayable",
      "type": "function"
    },
    {
      "inputs": [],
      "name": "treasury",
      "outputs": [
        {
          "internalType": "address",
          "name": "",
          "type": "address"
        }
      ],
      "stateMutability": "view",
      "type": "function"
    },
    {
      "inputs": [],
      "name": "unpause",
      "outputs": [],
      "stateMutability": "nonpayable",
      "type": "function"
    },
    {
      "inputs": [
        {
          "internalType": "address",
          "name": "newImplementation",
          "type": "address"
        },
        {
          "internalType": "bytes",
          "name": "data",
          "type": "bytes"
        }
      ],
      "name": "upgradeToAndCall",
      "outputs": [],
      "stateMutability": "payable",
      "type": "function"
    },
    {
      "stateMutability": "payable",
      "type": "receive"
    }
  ],
  "bytecode": "0x60a0604052306080523480156012575f5ffd5b5060805161330f6100395f395f8181611b3201528181611b5b0152611cd3015261330f5ff3fe6080604052600436106101b7575f3560e01c8063715018a6116100ea578063acca81fd1161008e578063c9ab882211610060578063c9ab882214610592578063dd5348a9146105a5578063f0f44260146105c4578063f2fde38b146105e357005b8063acca81fd14610504578063ad3cb1cc14610523578063c0c53b8b14610560578063c2ca269a1461057f57005b80638456cb59116100c75780638456cb591461047657806386958c161461048a5780638da5cb5b146104a95780639b23d3d9146104e557005b8063715018a6146104245780637323555f1461043857806380c59c761461045757005b80634dfba28b1161015c5780635f1c17c01161012e5780635f1c17c01461038a578063618dc65e146103c157806361943fc7146103ee57806361d027b31461040557005b80634dfba28b146103085780634f1ef2861461032757806352d1902d1461033a5780635c975abb1461035c57005b80631c41194b116101955780631c41194b1461022e57806338a7543e1461026457806339ba645b146102d55780633f4ba83a146102f457005b80630e27324d146101b957806310495bde146101d857806315dacbea146101f7575b005b3480156101c4575f5ffd5b506101b76101d336600461292c565b610602565b3480156101e3575f5ffd5b506101b76101f2366004612947565b61065b565b348015610202575f5ffd5b50610216610211366004612967565b610903565b60405160079190910b81526020015b60405180910390f35b348015610239575f5ffd5b505f5461024c906001600160a01b031681565b6040516001600160a01b039091168152602001610225565b34801561026f575f5ffd5b506102ae61027e36600461292c565b60036020525f90815260409020546001600160a01b0381169060ff600160a01b8204811691600160a81b90041683565b604080516001600160a01b0390941684529115156020840152151590820152606001610225565b3480156102e0575f5ffd5b506101b76102ef36600461292c565b6109f2565b3480156102ff575f5ffd5b506101b7610a1d565b348015610313575f5ffd5b506101b761032236600461292c565b610a2f565b6101b76103353660046129c9565b610a7e565b348015610345575f5ffd5b5061034e610a99565b604051908152602001610225565b348015610367575f5ffd5b505f51602061329a5f395f51905f525460ff166040519015158152602001610225565b348015610395575f5ffd5b506103a96103a4366004612a8f565b610ab4565b6040516102259c9b9a99989796959493929190612ae8565b3480156103cc575f5ffd5b506103e06103db3660046129c9565b610ba8565b604051610225929190612b79565b3480156103f9575f5ffd5b5061034e637735940081565b348015610410575f5ffd5b5060015461024c906001600160a01b031681565b34801561042f575f5ffd5b506101b7610cbf565b348015610443575f5ffd5b506101b761045236600461292c565b610cd0565b348015610462575f5ffd5b506101b761047136600461292c565b610d40565b348015610481575f5ffd5b506101b7610ddf565b348015610495575f5ffd5b506101b76104a4366004612a8f565b610def565b3480156104b4575f5ffd5b507f9016d09d72d40fdae2fd8ceac6b6234c7706214fd39c1cd1e609a0528c199300546001600160a01b031661024c565b3480156104f0575f5ffd5b506102166104ff366004612967565b610f25565b34801561050f575f5ffd5b5061034e61051e366004612b99565b610f69565b34801561052e575f5ffd5b50610553604051806040016040528060058152602001640352e302e360dc1b81525081565b6040516102259190612bf2565b34801561056b575f5ffd5b506101b761057a366004612c04565b611124565b6101b761058d366004612947565b611261565b6105536105a0366004612c91565b6114ad565b3480156105b0575f5ffd5b506101b76105bf366004612a8f565b61170a565b3480156105cf575f5ffd5b506101b76105de36600461292c565b6117fb565b3480156105ee575f5ffd5b506101b76105fd36600461292c565b611825565b61060a611862565b6001600160a01b0381165f81815260036020526040808220805460ff60a01b1916600160a01b179055517f333bb19eeef0621b32888db778cc7a481a89fc1d59adb2cecb59b40ef048941e9190a250565b6106636118bd565b61066b6118f4565b5f8281526004602052604090206005600982015460ff16600681111561069357610693612aa6565b146106d85760405162461bcd60e51b815260206004820152601060248201526f189bdb99081b9bdd081b585d1d5c995960821b60448201526064015b60405180910390fd5b5f82116107145760405162461bcd60e51b815260206004820152600a6024820152697a65726f20756e69747360b01b60448201526064016106cf565b5f8282600401546107259190612d54565b90505f61271083600201548361073b9190612d54565b6107459190612d6b565b90505f6107528284612d8a565b90506107e984600a01805461076690612d9d565b80601f016020809104026020016040519081016040528092919081815260200182805461079290612d9d565b80156107dd5780601f106107b4576101008083540402835291602001916107dd565b820191905f5260205f20905b8154815290600101906020018083116107c057829003601f168201915b50505050503387611924565b857f10a9fe9e8f6f1cbddfe32a4bba2d1387b594447fe2941833dc767f62ed79a4478660405161081b91815260200190565b60405180910390a26040515f90339083908381818185875af1925050503d805f8114610862576040519150601f19603f3d011682016040523d82523d5f602084013e610867565b606091505b50509050806108ad5760405162461bcd60e51b815260206004820152601260248201527112109054881c185e5bdd5d0819985a5b195960721b60448201526064016106cf565b604051828152339088907f32e15215ac942b0439aa4bad564f92b2e579326ffd635da7605f9a36c11de96c9060200160405180910390a350505050506108ff60015f5160206132ba5f395f51905f5255565b5050565b6040516001600160a01b038581166024830152848116604483015283166064820152608481018290525f908190819061016790630aed65f560e11b9060a4015b60408051601f198184030181529181526020820180516001600160e01b03166001600160e01b03199094169390931790925290516109819190612dd5565b5f604051808303815f865af19150503d805f81146109ba576040519150601f19603f3d011682016040523d82523d5f602084013e6109bf565b606091505b5091509150816109d05760156109e4565b808060200190518101906109e49190612e01565b60030b979650505050505050565b6109fa611862565b6001600160a01b03165f908152600360205260409020805460ff60a01b19169055565b610a25611862565b610a2d611ac7565b565b610a37611862565b5f80546001600160a01b0319166001600160a01b038316908117825560405190917fd1684a6699a35e6bc5da7f84f558e68903d11ce7855a7ecf3341e5d7cdc48d7991a250565b610a86611b27565b610a8f82611bcb565b6108ff8282611c0c565b5f610aa2611cc8565b505f51602061327a5f395f51905f5290565b600460208190525f918252604090912080546001820154600283015460038401549484015460058501546006860154600787015460088801546009890154600a8a018054999b6001600160a01b039099169a97999697959694959394929360ff90921692610b2190612d9d565b80601f0160208091040260200160405190810160405280929190818152602001828054610b4d90612d9d565b8015610b985780601f10610b6f57610100808354040283529160200191610b98565b820191905f5260205f20905b815481529060010190602001808311610b7b57829003601f168201915b50505050509080600b015490508c565b5f60605f5f6101676001600160a01b031663618dc65e60e01b8787604051602401610bd4929190612e1a565b60408051601f198184030181529181526020820180516001600160e01b03166001600160e01b0319909416939093179092529051610c129190612dd5565b5f604051808303815f865af19150503d805f8114610c4b576040519150601f19603f3d011682016040523d82523d5f602084013e610c50565b606091505b50915091507f4af4780e06fe8cb9df64b0794fa6f01399af979175bb988e35e0e57e594567bc8282604051610c86929190612e3d565b60405180910390a181610ca957601560405180602001604052805f815250610cad565b6016815b60039190910b97909650945050505050565b610cc7611862565b610a2d5f611d11565b610cd86118f4565b335f818152600360209081526040918290208054600161ff0160a01b0319166001600160a01b038616908117600160a81b1790915591519182527fd235eec2ad38b3ce50de8679ab6421ab499dea2ce99903a0ec21703ad11de7e1910160405180910390a250565b610d48611862565b60405147905f906001600160a01b0384169083908381818185875af1925050503d805f8114610d92576040519150601f19603f3d011682016040523d82523d5f602084013e610d97565b606091505b5050905080610dda5760405162461bcd60e51b815260206004820152600f60248201526e1dda5d1a191c985dc819985a5b1959608a1b60448201526064016106cf565b505050565b610de7611862565b610a2d611d81565b610df7611862565b5f8181526004602052604090206001600982015460ff166006811115610e1f57610e1f612aa6565b1480610e4357506002600982015460ff166006811115610e4157610e41612aa6565b145b610e805760405162461bcd60e51b815260206004820152600e60248201526d696e76616c69642073746174757360901b60448201526064016106cf565b60018101546001600160a01b03165f90815260036020526040902054600160a01b900460ff16610ee85760405162461bcd60e51b81526020600482015260136024820152721a5cdcdd595c8812d650c81c995c5d5a5c9959606a1b60448201526064016106cf565b60098101805460ff1916600317905560405182907fcf6940de3bfe4a95d0ac5ed4774d2b695f613725e8ad596c5f831a0ee31c37b3905f90a25050565b6040516001600160a01b038581166024830152848116604483015283166064820152608481018290525f908190819061016790639b23d3d960e01b9060a401610943565b5f610f72611862565b600280545f9182610f8283612e57565b9190505590506040518061018001604052808281526020018b6001600160a01b031681526020018a815260200189815260200188815260200187815260200186815260200185815260200184815260200160016006811115610fe657610fe6612aa6565b815260200160405180602001604052805f81525081526020015f81525060045f8381526020019081526020015f205f820151815f01556020820151816001015f6101000a8154816001600160a01b0302191690836001600160a01b0316021790555060408201518160020155606082015181600301556080820151816004015560a0820151816005015560c0820151816006015560e082015181600701556101008201518160080155610120820151816009015f6101000a81548160ff021916908360068111156110b9576110b9612aa6565b0217905550610140820151600a8201906110d39082612eb3565b506101609190910151600b909101556040516001600160a01b038b169082907f2e2991ef60d4a4f3a23a62bd6fe03e0a2a3732c77bc82deed4ce2778b4c12bc4905f90a39998505050505050505050565b5f61112d611dc9565b805490915060ff600160401b820416159067ffffffffffffffff165f811580156111545750825b90505f8267ffffffffffffffff1660011480156111705750303b155b90508115801561117e575080155b1561119c5760405163f92ee8a960e01b815260040160405180910390fd5b845467ffffffffffffffff1916600117855583156111c657845460ff60401b1916600160401b1785555b6111cf86611df3565b6111d7611e04565b6111df611e0c565b5f80546001600160a01b03808b166001600160a01b03199283161790925560018054928a1692909116919091178155600255831561125757845460ff60401b19168555604051600181527fc7f505b2f371ae2175ee4913f4499e1f2633a7b5936321eed1cdaeb6115181d29060200160405180910390a15b5050505050505050565b6112696118bd565b6112716118f4565b5f82815260046020819052604090912090600982015460ff16600681111561129b5761129b612aa6565b146112da5760405162461bcd60e51b815260206004820152600f60248201526e189bdb99081b9bdd081a5cdcdd5959608a1b60448201526064016106cf565b5f821180156112ed575080600b01548211155b6113295760405162461bcd60e51b815260206004820152600d60248201526c696e76616c696420756e69747360981b60448201526064016106cf565b5f82826004015461133a9190612d54565b90508034146113815760405162461bcd60e51b81526020600482015260136024820152721a5b98dbdc9c9958dd0812109054881cd95b9d606a1b60448201526064016106cf565b61141682600a01805461139390612d9d565b80601f01602080910402602001604051908101604052809291908181526020018280546113bf90612d9d565b801561140a5780601f106113e15761010080835404028352916020019161140a565b820191905f5260205f20905b8154815290600101906020018083116113ed57829003601f168201915b50505050503385611e1c565b8282600b015f8282546114299190612f6e565b909155505060408051848152346020820152339186917f707436ae8e2440cc5c4536ccaec96f7ad671d271c1cdb2ec5a92a5a5126f8b02910160405180910390a360018201546001600160a01b039081165f908152600360205260409020546114959186911634611f3d565b50506108ff60015f5160206132ba5f395f51905f5255565b60606114b7611862565b6114bf6118f4565b5f8981526004602052604090206003600982015460ff1660068111156114e7576114e7612aa6565b146115285760405162461bcd60e51b8152602060048201526011602482015270189bdb99081b9bdd08185c1c1c9bdd9959607a1b60448201526064016106cf565b5f83116115625760405162461bcd60e51b81526020600482015260086024820152670616d6f756e743d360c41b60448201526064016106cf565b806005015483146115a75760405162461bcd60e51b815260206004820152600f60248201526e0c2dadeeadce840dad2e6dac2e8c6d608b1b60448201526064016106cf565b63773594003410156115f45760405162461bcd60e51b8152602060048201526016602482015275696e73756666696369656e742069737375652066656560501b60448201526064016106cf565b5f61169b8a8a8080601f0160208091040260200160405190810160405280939291908181526020018383808284375f9201919091525050604080516020601f8e018190048102820181019092528c815292508c91508b90819084018382808284375f9201919091525050604080516020601f8d018190048102820181019092528b815292508b91508a90819084018382808284375f920191909152508a92506120c0915050565b9050600a82016116ab8282612eb3565b50600b820184905560098201805460ff191660041790556040518b907f7f7a5ea64bcf72423a658084b7211ede6fc890df8c319f340ed71d76e02c364f906116f4908490612bf2565b60405180910390a29a9950505050505050505050565b611712611862565b5f81815260046020526040902060088101544210156117655760405162461bcd60e51b815260206004820152600f60248201526e1b9bdd081b585d1d5c9959081e595d608a1b60448201526064016106cf565b6004600982015460ff16600681111561178057611780612aa6565b146117be5760405162461bcd60e51b815260206004820152600e60248201526d696e76616c69642073746174757360901b60448201526064016106cf565b60098101805460ff1916600517905560405182907f649a42f6e04f3cd15f744ac4027df1cd581ff8c96253f889690027aaf11591ca905f90a25050565b611803611862565b600180546001600160a01b0319166001600160a01b0392909216919091179055565b61182d611862565b6001600160a01b03811661185657604051631e4fbdf760e01b81525f60048201526024016106cf565b61185f81611d11565b50565b336118947f9016d09d72d40fdae2fd8ceac6b6234c7706214fd39c1cd1e609a0528c199300546001600160a01b031690565b6001600160a01b031614610a2d5760405163118cdaa760e01b81523360048201526024016106cf565b5f5160206132ba5f395f51905f528054600119016118ee57604051633ee5aeb560e01b815260040160405180910390fd5b60029055565b5f51602061329a5f395f51905f525460ff1615610a2d5760405163d93c066560e01b815260040160405180910390fd5b5f61192e846123c6565b90506001600160a01b0381166119705760405162461bcd60e51b81526020600482015260076024820152660746f6b656e3d360cc1b60448201526064016106cf565b6001600160a01b0383166119af5760405162461bcd60e51b8152602060048201526006602482015265066726f6d3d360d41b60448201526064016106cf565b5f82116119e65760405162461bcd60e51b81526020600482015260056024820152640616d743d360dc1b60448201526064016106cf565b5f6119fb8285306119f6876123db565b612429565b905060168114611a435760405162461bcd60e51b8152602060048201526013602482015272121514c81d1c985b9cd9995c8819985a5b1959606a1b60448201526064016106cf565b604080515f8082526020820190925290611a6684611a60876123db565b84612470565b50905060168114611aab5760405162461bcd60e51b815260206004820152600f60248201526e121514c8189d5c9b8819985a5b1959608a1b60448201526064016106cf565b50505050505050565b60015f5160206132ba5f395f51905f5255565b611acf612552565b5f51602061329a5f395f51905f52805460ff191681557f5db9ee0a495bf2e6ff9c91a7834c1ba4fdd244a5e8aa4e537bd38aeae4b073aa335b6040516001600160a01b0390911681526020015b60405180910390a150565b306001600160a01b037f0000000000000000000000000000000000000000000000000000000000000000161480611bad57507f00000000000000000000000000000000000000000000000000000000000000006001600160a01b0316611ba15f51602061327a5f395f51905f52546001600160a01b031690565b6001600160a01b031614155b15610a2d5760405163703e46dd60e11b815260040160405180910390fd5b611bd3611862565b6040516001600160a01b03821681527fc68d6b394bbff225c75b6ba60811fafb0da04351338aa28c9614981c55287be290602001611b1c565b816001600160a01b03166352d1902d6040518163ffffffff1660e01b8152600401602060405180830381865afa925050508015611c66575060408051601f3d908101601f19168201909252611c6391810190612f81565b60015b611c8e57604051634c9c8ce360e01b81526001600160a01b03831660048201526024016106cf565b5f51602061327a5f395f51905f528114611cbe57604051632a87526960e21b8152600481018290526024016106cf565b610dda8383612581565b306001600160a01b037f00000000000000000000000000000000000000000000000000000000000000001614610a2d5760405163703e46dd60e11b815260040160405180910390fd5b7f9016d09d72d40fdae2fd8ceac6b6234c7706214fd39c1cd1e609a0528c19930080546001600160a01b031981166001600160a01b03848116918217845560405192169182907f8be0079c531659141344cd1fd0a4f28419497f9722a3daafe3b4186f6b6457e0905f90a3505050565b611d896118f4565b5f51602061329a5f395f51905f52805460ff191660011781557f62e78cea01bee320cd4e420270b5ea74000d11b0c9f74754ebdbfc544b05a25833611b08565b5f807ff0c57e16840df040f15088dc2f81fe391c3923bec73e23a9662efc9c229c6a005b92915050565b611dfb6125d6565b61185f816125fb565b610a2d6125d6565b611e146125d6565b610a2d612603565b5f611e26846123c6565b90506001600160a01b038116611e685760405162461bcd60e51b81526020600482015260076024820152660746f6b656e3d360cc1b60448201526064016106cf565b6001600160a01b038316611ea75760405162461bcd60e51b81526004016106cf906020808252600490820152630746f3d360e41b604082015260600190565b5f8211611ede5760405162461bcd60e51b81526020600482015260056024820152640616d743d360dc1b60448201526064016106cf565b5f611eee8230866119f6876123db565b905060168114611f365760405162461bcd60e51b8152602060048201526013602482015272121514c81d1c985b9cd9995c8819985a5b1959606a1b60448201526064016106cf565b5050505050565b5f826001600160a01b0316826040515f6040518083038185875af1925050503d805f8114611f86576040519150601f19603f3d011682016040523d82523d5f602084013e611f8b565b606091505b505090508015611fde57826001600160a01b0316847ffd821dee016c4145d9b8830c22fbebf80b198d264114de5225b972202ddf38ef84604051611fd191815260200190565b60405180910390a36120ba565b6001546040515f916001600160a01b03169084908381818185875af1925050503d805f8114612028576040519150601f19603f3d011682016040523d82523d5f602084013e61202d565b606091505b50509050806120745760405162461bcd60e51b81526020600482015260136024820152721210905488199bdc9dd85c990819985a5b1959606a1b60448201526064016106cf565b6001546040518481526001600160a01b039091169086907ffd821dee016c4145d9b8830c22fbebf80b198d264114de5225b972202ddf38ef9060200160405180910390a3505b50505050565b60605f8551116121025760405162461bcd60e51b815260206004820152600d60248201526c1b985b59481c995c5d5a5c9959609a1b60448201526064016106cf565b5f8451116121445760405162461bcd60e51b815260206004820152600f60248201526e1cde5b589bdb081c995c5d5a5c9959608a1b60448201526064016106cf565b6121a96040805161012081018252606080825260208083018290525f8385018190528284018390526080840181905260a0840181905260c0840181905260e0840183905284519283018552808352908201819052928101929092529061010082015290565b8581526020808201869052306040808401919091525f6080840181905260a0840181905260c0840181905281518181529283019091526121ff565b6121ec6128c4565b8152602001906001900390816121e45790505b5060e08201528351156122cc575f606485511161221d578451612220565b60645b90505f8167ffffffffffffffff81111561223c5761223c6129b5565b6040519080825280601f01601f191660200182016040528015612266576020820181803683370190505b5090505f5b828110156122c05786818151811061228557612285612f98565b602001015160f81c60f81b8282815181106122a2576122a2612f98565b60200101906001600160f81b03191690815f1a90535060010161226b565b506060830152506122e0565b60408051602081019091525f815260608201525b5f6122ef426301e13380612d8a565b9050677fffffffffffffff81111561230c5750677fffffffffffffff5b60408051606081018252600783900b8152306020820152627864509181019190915261010083018190525f8061234b85612345896123db565b5f61260b565b9092509050601682146123945760405162461bcd60e51b8152602060048201526011602482015270121514c818dc99585d194819985a5b1959607a1b60448201526064016106cf565b604080516001600160a01b03831660208201520160405160208183030381529060405295505050505050949350505050565b5f81806020019051810190611ded9190612fac565b5f677fffffffffffffff8211156124255760405162461bcd60e51b815260206004820152600e60248201526d1bdd995c999b1bddc81a5b9d0d8d60921b60448201526064016106cf565b5090565b6040516001600160a01b038581166024830152848116604483015283166064820152600782900b60848201525f90819081906101679063eca3691760e01b9060a401610943565b5f5f5f5f6101676001600160a01b031663d6910d0660e01b88888860405160240161249d93929190612fc7565b60408051601f198184030181529181526020820180516001600160e01b03166001600160e01b03199094169390931790925290516124db9190612dd5565b5f604051808303815f865af19150503d805f8114612514576040519150601f19603f3d011682016040523d82523d5f602084013e612519565b606091505b50915091508161252b5760155f61253f565b8080602001905181019061253f9190613029565b60039190910b9890975095505050505050565b5f51602061329a5f395f51905f525460ff16610a2d57604051638dfc202b60e01b815260040160405180910390fd5b61258a8261272b565b6040516001600160a01b038316907fbc7cd75a20ee27fd9adebab32041f755214dbc6bffa90cc0225b39da2e5c2d3b905f90a28051156125ce57610dda828261278e565b6108ff612800565b6125de61281f565b610a2d57604051631afcd79f60e31b815260040160405180910390fd5b61182d6125d6565b611ab46125d6565b5f5f848061010001515f015160070b5f14801561263257506101008101516040015160070b155b15612648576101008101516276a7006040909101525b5f5f6101676001600160a01b031634630fb65bf360e01b8a8a8a60405160240161267493929190613130565b60408051601f198184030181529181526020820180516001600160e01b03166001600160e01b03199094169390931790925290516126b29190612dd5565b5f6040518083038185875af1925050503d805f81146126ec576040519150601f19603f3d011682016040523d82523d5f602084013e6126f1565b606091505b5091509150816127035760155f612717565b80806020019051810190612717919061324f565b60039190910b999098509650505050505050565b806001600160a01b03163b5f0361276057604051634c9c8ce360e01b81526001600160a01b03821660048201526024016106cf565b5f51602061327a5f395f51905f5280546001600160a01b0319166001600160a01b0392909216919091179055565b60605f5f846001600160a01b0316846040516127aa9190612dd5565b5f60405180830381855af49150503d805f81146127e2576040519150601f19603f3d011682016040523d82523d5f602084013e6127e7565b606091505b50915091506127f7858383612838565b95945050505050565b3415610a2d5760405163b398979f60e01b815260040160405180910390fd5b5f612828611dc9565b54600160401b900460ff16919050565b60608261284d5761284882612897565b612890565b815115801561286457506001600160a01b0384163b155b1561288d57604051639996b31560e01b81526001600160a01b03851660048201526024016106cf565b50805b9392505050565b8051156128a657805160208201fd5b60405163d6bda27560e01b815260040160405180910390fd5b905290565b60405180604001604052805f81526020016128bf6040518060a001604052805f151581526020015f6001600160a01b0316815260200160608152602001606081526020015f6001600160a01b031681525090565b6001600160a01b038116811461185f575f5ffd5b5f6020828403121561293c575f5ffd5b813561289081612918565b5f5f60408385031215612958575f5ffd5b50508035926020909101359150565b5f5f5f5f6080858703121561297a575f5ffd5b843561298581612918565b9350602085013561299581612918565b925060408501356129a581612918565b9396929550929360600135925050565b634e487b7160e01b5f52604160045260245ffd5b5f5f604083850312156129da575f5ffd5b82356129e581612918565b9150602083013567ffffffffffffffff811115612a00575f5ffd5b8301601f81018513612a10575f5ffd5b803567ffffffffffffffff811115612a2a57612a2a6129b5565b604051601f8201601f19908116603f0116810167ffffffffffffffff81118282101715612a5957612a596129b5565b604052818152828201602001871015612a70575f5ffd5b816020840160208301375f602083830101528093505050509250929050565b5f60208284031215612a9f575f5ffd5b5035919050565b634e487b7160e01b5f52602160045260245ffd5b5f81518084528060208401602086015e5f602082860101526020601f19601f83011685010191505092915050565b8c815260018060a01b038c1660208201528a60408201528960608201528860808201528760a08201528660c08201528560e0820152846101008201525f60078510612b4157634e487b7160e01b5f52602160045260245ffd5b84610120830152610180610140830152612b5f610180830185612aba565b9050826101608301529d9c50505050505050505050505050565b828152604060208201525f612b916040830184612aba565b949350505050565b5f5f5f5f5f5f5f5f610100898b031215612bb1575f5ffd5b8835612bbc81612918565b9a60208a01359a5060408a013599606081013599506080810135985060a0810135975060c0810135965060e00135945092505050565b602081525f6128906020830184612aba565b5f5f5f60608486031215612c16575f5ffd5b8335612c2181612918565b92506020840135612c3181612918565b91506040840135612c4181612918565b809150509250925092565b5f5f83601f840112612c5c575f5ffd5b50813567ffffffffffffffff811115612c73575f5ffd5b602083019150836020828501011115612c8a575f5ffd5b9250929050565b5f5f5f5f5f5f5f5f60a0898b031215612ca8575f5ffd5b88359750602089013567ffffffffffffffff811115612cc5575f5ffd5b612cd18b828c01612c4c565b909850965050604089013567ffffffffffffffff811115612cf0575f5ffd5b612cfc8b828c01612c4c565b909650945050606089013567ffffffffffffffff811115612d1b575f5ffd5b612d278b828c01612c4c565b999c989b50969995989497949560800135949350505050565b634e487b7160e01b5f52601160045260245ffd5b8082028115828204841417611ded57611ded612d40565b5f82612d8557634e487b7160e01b5f52601260045260245ffd5b500490565b80820180821115611ded57611ded612d40565b600181811c90821680612db157607f821691505b602082108103612dcf57634e487b7160e01b5f52602260045260245ffd5b50919050565b5f82518060208501845e5f920191825250919050565b8051600381900b8114612dfc575f5ffd5b919050565b5f60208284031215612e11575f5ffd5b61289082612deb565b6001600160a01b03831681526040602082018190525f90612b9190830184612aba565b8215158152604060208201525f612b916040830184612aba565b5f60018201612e6857612e68612d40565b5060010190565b601f821115610dda57805f5260205f20601f840160051c81016020851015612e945750805b601f840160051c820191505b81811015611f36575f8155600101612ea0565b815167ffffffffffffffff811115612ecd57612ecd6129b5565b612ee181612edb8454612d9d565b84612e6f565b6020601f821160018114612f13575f8315612efc5750848201515b5f19600385901b1c1916600184901b178455611f36565b5f84815260208120601f198516915b82811015612f425787850151825560209485019460019092019101612f22565b5084821015612f5f57868401515f19600387901b60f8161c191681555b50505050600190811b01905550565b81810381811115611ded57611ded612d40565b5f60208284031215612f91575f5ffd5b5051919050565b634e487b7160e01b5f52603260045260245ffd5b5f60208284031215612fbc575f5ffd5b815161289081612918565b5f6060820160018060a01b03861683528460070b6020840152606060408401528084518083526080850191506020860192505f5b8181101561301c57835160070b835260209384019390920191600101612ffb565b5090979650505050505050565b5f5f6040838503121561303a575f5ffd5b61304383612deb565b915060208301518060070b8114613058575f5ffd5b809150509250929050565b5f82825180855260208501945060208160051b830101602085015f5b8381101561312457848303601f1901885281518051845260209081015160408286018190528151151581870152918101516001600160a01b031660608601529081015160a060808601526130d660e0860182612aba565b90506060820151603f198683030160a08701526130f38282612aba565b608093909301516001600160a01b031660c0969096019590955250602098890198909350919091019060010161307f565b50909695505050505050565b606081525f8451610160606084015261314d6101c0840182612aba565b90506020860151605f1984830301608085015261316a8282612aba565b915050604086015161318760a08501826001600160a01b03169052565b506060860151838203605f190160c08501526131a38282612aba565b91505060808601516131b960e085018215159052565b5060a08601516131cf61010085018260070b9052565b5060c0860151151561012084015260e0860151838203605f19016101408501526131f98282613063565b6101008801518051600790810b6101608801526020808301516001600160a01b0316610180890152604090920151810b6101a088015288900b908601529250613240915050565b612b91604083018460030b9052565b5f5f60408385031215613260575f5ffd5b61326983612deb565b915060208301516130588161291856fe360894a13ba1a3210667c828492db98dca3e2076cc3735a920a3ca505d382bbccd5ed15c6e187e77e9aee88184c21f4f2182ab5827cb3b7e07fbedcd63f033009b779b17422d0df92223018b32b4d1fa46e071723d6817e2486d003becc55f00a26469706673582212202ab6c90c6faae5968b8b0c877a10d77b7e48a584136f9246af72d43e46c57b4864736f6c634300081c0033",
  "linkReferences": {},
  "deployedLinkReferences": {},
  "immutableReferences": {
    "5429": [
      {
        "length": 32,
        "start": 6962
      },
      {
        "length": 32,
        "start": 7003
      },
      {
        "length": 32,
        "start": 7379
      }
    ]
  },
  "inputSourceName": "project/contracts/AdminV1.sol",
  "buildInfoId": "solc-0_8_28-50723341756cbe3c1d5aedd4aa4264672357aaf4"
}